{
  "contractName": "GlueReceiver",
  "abi": [
    {
      "inputs": [
        {
          "internalType": "uint256",
          "name": "_deploy_fee",
          "type": "uint256"
        },
        {
          "internalType": "uint256",
          "name": "_mint_fee",
          "type": "uint256"
        },
        {
          "internalType": "address",
          "name": "addr",
          "type": "address"
        }
      ],
      "stateMutability": "nonpayable",
      "type": "constructor"
    },
    {
      "anonymous": false,
      "inputs": [
        {
          "indexed": true,
          "internalType": "address",
          "name": "_contract",
          "type": "address"
        },
        {
          "indexed": true,
          "internalType": "address",
          "name": "_wallet",
          "type": "address"
        }
      ],
      "name": "MultiOwnableWalletSet",
      "type": "event"
    },
    {
      "anonymous": false,
      "inputs": [],
      "name": "Pause",
      "type": "event"
    },
    {
      "anonymous": false,
      "inputs": [],
      "name": "Unpause",
      "type": "event"
    },
    {
      "inputs": [
        {
          "internalType": "uint256",
          "name": "",
          "type": "uint256"
        }
      ],
      "name": "BEP20MintRequests",
      "outputs": [
        {
          "internalType": "address",
          "name": "tokenAddress",
          "type": "address"
        },
        {
          "internalType": "address",
          "name": "requestOwner",
          "type": "address"
        },
        {
          "internalType": "uint256",
          "name": "amount",
          "type": "uint256"
        },
        {
          "internalType": "bool",
          "name": "isResolved",
          "type": "bool"
        }
      ],
      "stateMutability": "view",
      "type": "function",
      "constant": true
    },
    {
      "inputs": [],
      "name": "BEP20MintRequestsLength",
      "outputs": [
        {
          "internalType": "uint256",
          "name": "",
          "type": "uint256"
        }
      ],
      "stateMutability": "view",
      "type": "function",
      "constant": true
    },
    {
      "inputs": [
        {
          "internalType": "address",
          "name": "",
          "type": "address"
        }
      ],
      "name": "BEP20Token",
      "outputs": [
        {
          "internalType": "address",
          "name": "ERC20Address",
          "type": "address"
        },
        {
          "internalType": "address",
          "name": "BEP20Address",
          "type": "address"
        },
        {
          "internalType": "string",
          "name": "name",
          "type": "string"
        },
        {
          "internalType": "string",
          "name": "symbol",
          "type": "string"
        },
        {
          "internalType": "uint8",
          "name": "decimals",
          "type": "uint8"
        },
        {
          "internalType": "uint256",
          "name": "totalSupply",
          "type": "uint256"
        },
        {
          "internalType": "uint256",
          "name": "BEP20Supply",
          "type": "uint256"
        }
      ],
      "stateMutability": "view",
      "type": "function",
      "constant": true
    },
    {
      "inputs": [
        {
          "internalType": "uint256",
          "name": "",
          "type": "uint256"
        }
      ],
      "name": "BEP20TokenRequests",
      "outputs": [
        {
          "internalType": "address",
          "name": "",
          "type": "address"
        }
      ],
      "stateMutability": "view",
      "type": "function",
      "constant": true
    },
    {
      "inputs": [],
      "name": "BEP20TokenRequestsLength",
      "outputs": [
        {
          "internalType": "uint256",
          "name": "",
          "type": "uint256"
        }
      ],
      "stateMutability": "view",
      "type": "function",
      "constant": true
    },
    {
      "inputs": [
        {
          "internalType": "uint256",
          "name": "",
          "type": "uint256"
        }
      ],
      "name": "BEP20UnlockRequests",
      "outputs": [
        {
          "internalType": "address",
          "name": "tokenAddress",
          "type": "address"
        },
        {
          "internalType": "address",
          "name": "requestOwner",
          "type": "address"
        },
        {
          "internalType": "uint256",
          "name": "amount",
          "type": "uint256"
        },
        {
          "internalType": "bool",
          "name": "isResolved",
          "type": "bool"
        }
      ],
      "stateMutability": "view",
      "type": "function",
      "constant": true
    },
    {
      "inputs": [],
      "name": "BEP20UnlockRequestsLength",
      "outputs": [
        {
          "internalType": "uint256",
          "name": "",
          "type": "uint256"
        }
      ],
      "stateMutability": "view",
      "type": "function",
      "constant": true
    },
    {
      "inputs": [],
      "name": "BEP20_DEPLOY_FEE",
      "outputs": [
        {
          "internalType": "uint256",
          "name": "",
          "type": "uint256"
        }
      ],
      "stateMutability": "view",
      "type": "function",
      "constant": true
    },
    {
      "inputs": [],
      "name": "BEP20_MINT_FEE",
      "outputs": [
        {
          "internalType": "uint256",
          "name": "",
          "type": "uint256"
        }
      ],
      "stateMutability": "view",
      "type": "function",
      "constant": true
    },
    {
      "inputs": [
        {
          "internalType": "address",
          "name": "_address",
          "type": "address"
        }
      ],
      "name": "isOwner",
      "outputs": [
        {
          "internalType": "bool",
          "name": "",
          "type": "bool"
        }
      ],
      "stateMutability": "view",
      "type": "function",
      "constant": true
    },
    {
      "inputs": [
        {
          "internalType": "address",
          "name": "",
          "type": "address"
        }
      ],
      "name": "mirroredBEP20",
      "outputs": [
        {
          "internalType": "address",
          "name": "BEP20Address",
          "type": "address"
        },
        {
          "internalType": "address",
          "name": "ERC20Address",
          "type": "address"
        },
        {
          "internalType": "bool",
          "name": "deployed",
          "type": "bool"
        }
      ],
      "stateMutability": "view",
      "type": "function",
      "constant": true
    },
    {
      "inputs": [],
      "name": "pause",
      "outputs": [],
      "stateMutability": "nonpayable",
      "type": "function"
    },
    {
      "inputs": [],
      "name": "paused",
      "outputs": [
        {
          "internalType": "bool",
          "name": "",
          "type": "bool"
        }
      ],
      "stateMutability": "view",
      "type": "function",
      "constant": true
    },
    {
      "inputs": [],
      "name": "unpause",
      "outputs": [],
      "stateMutability": "nonpayable",
      "type": "function"
    },
    {
      "inputs": [],
      "name": "wallet",
      "outputs": [
        {
          "internalType": "contract MultiSigWallet",
          "name": "",
          "type": "address"
        }
      ],
      "stateMutability": "view",
      "type": "function",
      "constant": true
    },
    {
      "inputs": [
        {
          "internalType": "address",
          "name": "tokenAddress",
          "type": "address"
        }
      ],
      "name": "glueBEP20",
      "outputs": [],
      "stateMutability": "payable",
      "type": "function",
      "payable": true
    },
    {
      "inputs": [
        {
          "internalType": "address",
          "name": "BEP20Address",
          "type": "address"
        },
        {
          "internalType": "string",
          "name": "__name",
          "type": "string"
        },
        {
          "internalType": "string",
          "name": "__symbol",
          "type": "string"
        },
        {
          "internalType": "uint8",
          "name": "__decimals",
          "type": "uint8"
        }
      ],
      "name": "deployMirrorERC20",
      "outputs": [],
      "stateMutability": "nonpayable",
      "type": "function"
    },
    {
      "inputs": [
        {
          "internalType": "address",
          "name": "tokenAddress",
          "type": "address"
        },
        {
          "internalType": "uint256",
          "name": "amount",
          "type": "uint256"
        }
      ],
      "name": "increaseBEP20Supply",
      "outputs": [],
      "stateMutability": "payable",
      "type": "function",
      "payable": true
    },
    {
      "inputs": [
        {
          "internalType": "address",
          "name": "tokenAddress",
          "type": "address"
        },
        {
          "internalType": "uint256",
          "name": "amount",
          "type": "uint256"
        },
        {
          "internalType": "address",
          "name": "receiver",
          "type": "address"
        }
      ],
      "name": "decreaseBEP20Supply",
      "outputs": [],
      "stateMutability": "nonpayable",
      "type": "function"
    },
    {
      "inputs": [
        {
          "internalType": "uint256",
          "name": "amount",
          "type": "uint256"
        },
        {
          "internalType": "address",
          "name": "mirrorTokenAddress",
          "type": "address"
        }
      ],
      "name": "requestUnlock",
      "outputs": [],
      "stateMutability": "nonpayable",
      "type": "function"
    },
    {
      "inputs": [
        {
          "internalType": "uint256",
          "name": "fee",
          "type": "uint256"
        }
      ],
      "name": "setBEP20DeployFee",
      "outputs": [],
      "stateMutability": "nonpayable",
      "type": "function"
    },
    {
      "inputs": [
        {
          "internalType": "uint256",
          "name": "fee",
          "type": "uint256"
        }
      ],
      "name": "setBEP20MintFee",
      "outputs": [],
      "stateMutability": "nonpayable",
      "type": "function"
    },
    {
      "inputs": [
        {
          "internalType": "uint256",
          "name": "amount",
          "type": "uint256"
        },
        {
          "internalType": "address payable",
          "name": "to",
          "type": "address"
        }
      ],
      "name": "withdrawFees",
      "outputs": [],
      "stateMutability": "nonpayable",
      "type": "function"
    }
  ],
  "bytecode": "0x608060405260008060146101000a81548160ff02191690831515021790555034801561002a57600080fd5b506040516148243803806148248339818101604052606081101561004d57600080fd5b8101908080519060200190929190805190602001909291908051906020019092919050505080806000806101000a81548173ffffffffffffffffffffffffffffffffffffffff021916908373ffffffffffffffffffffffffffffffffffffffff1602179055508073ffffffffffffffffffffffffffffffffffffffff163073ffffffffffffffffffffffffffffffffffffffff167fafcdd415329178553b69a5c7b7ece5d86014afa3335a808a26f32110981061a760405160405180910390a35060006003819055506000600481905550600060058190555082600181905550816002819055505050506146de806101466000396000f3fe6080604052600436106200015e5760003560e01c80635c975abb11620000c7578063c3c6459d1162000079578063c3c6459d1462000833578063dd2cc3f31462000861578063df6feb4814620008c0578063e80ac7de146200091f578063ebe73f9c146200094d578063faacb418146200097b576200015e565b80635c975abb1462000615578063697b530a14620006455780638456cb5914620006db5780638dd5510814620006f55780638e201ee51462000734578063b13bb73e146200079d576200015e565b80633442d1da11620001215780633442d1da146200038a5780633a193e3214620003b85780633f4ba83a14620003f757806340fa332b1462000411578063521eb273146200043f57806352991a901462000483576200015e565b80630d89a776146200016357806325436bc314620001aa5780632e25252214620002295780632f54bf6e146200027a5780633225210b14620002e5575b600080fd5b620001a8600480360360208110156200017b57600080fd5b81019080803573ffffffffffffffffffffffffffffffffffffffff16906020019092919050505062000b11565b005b348015620001b757600080fd5b506200022760048036036060811015620001d057600080fd5b81019080803573ffffffffffffffffffffffffffffffffffffffff16906020019092919080359060200190929190803573ffffffffffffffffffffffffffffffffffffffff169060200190929190505050620011fb565b005b62000278600480360360408110156200024157600080fd5b81019080803573ffffffffffffffffffffffffffffffffffffffff1690602001909291908035906020019092919050505062001368565b005b3480156200028757600080fd5b50620002cd60048036036020811015620002a057600080fd5b81019080803573ffffffffffffffffffffffffffffffffffffffff169060200190929190505050620016bd565b60405180821515815260200191505060405180910390f35b348015620002f257600080fd5b5062000338600480360360208110156200030b57600080fd5b81019080803573ffffffffffffffffffffffffffffffffffffffff169060200190929190505050620017e2565b604051808473ffffffffffffffffffffffffffffffffffffffff1681526020018373ffffffffffffffffffffffffffffffffffffffff1681526020018215158152602001935050505060405180910390f35b3480156200039757600080fd5b50620003a262001859565b6040518082815260200191505060405180910390f35b348015620003c557600080fd5b50620003f560048036036020811015620003de57600080fd5b81019080803590602001909291905050506200185f565b005b3480156200040457600080fd5b506200040f6200187e565b005b3480156200041e57600080fd5b506200042962001939565b6040518082815260200191505060405180910390f35b3480156200044c57600080fd5b50620004576200193f565b604051808273ffffffffffffffffffffffffffffffffffffffff16815260200191505060405180910390f35b3480156200049057600080fd5b50620004d660048036036020811015620004a957600080fd5b81019080803573ffffffffffffffffffffffffffffffffffffffff16906020019092919050505062001963565b604051808873ffffffffffffffffffffffffffffffffffffffff1681526020018773ffffffffffffffffffffffffffffffffffffffff16815260200180602001806020018660ff168152602001858152602001848152602001838103835288818151815260200191508051906020019080838360005b83811015620005695780820151818401526020810190506200054c565b50505050905090810190601f168015620005975780820380516001836020036101000a031916815260200191505b50838103825287818151815260200191508051906020019080838360005b83811015620005d2578082015181840152602081019050620005b5565b50505050905090810190601f168015620006005780820380516001836020036101000a031916815260200191505b50995050505050505050505060405180910390f35b3480156200062257600080fd5b506200062d62001b2a565b60405180821515815260200191505060405180910390f35b3480156200065257600080fd5b5062000682600480360360208110156200066b57600080fd5b810190808035906020019092919050505062001b3d565b604051808573ffffffffffffffffffffffffffffffffffffffff1681526020018473ffffffffffffffffffffffffffffffffffffffff168152602001838152602001821515815260200194505050505060405180910390f35b348015620006e857600080fd5b50620006f362001bba565b005b3480156200070257600080fd5b5062000732600480360360208110156200071b57600080fd5b810190808035906020019092919050505062001c77565b005b3480156200074157600080fd5b5062000771600480360360208110156200075a57600080fd5b810190808035906020019092919050505062001c96565b604051808273ffffffffffffffffffffffffffffffffffffffff16815260200191505060405180910390f35b348015620007aa57600080fd5b50620007da60048036036020811015620007c357600080fd5b810190808035906020019092919050505062001cc9565b604051808573ffffffffffffffffffffffffffffffffffffffff1681526020018473ffffffffffffffffffffffffffffffffffffffff168152602001838152602001821515815260200194505050505060405180910390f35b3480156200084057600080fd5b506200084b62001d46565b6040518082815260200191505060405180910390f35b3480156200086e57600080fd5b50620008be600480360360408110156200088757600080fd5b8101908080359060200190929190803573ffffffffffffffffffffffffffffffffffffffff16906020019092919050505062001d4c565b005b348015620008cd57600080fd5b506200091d60048036036040811015620008e657600080fd5b8101908080359060200190929190803573ffffffffffffffffffffffffffffffffffffffff16906020019092919050505062001dad565b005b3480156200092c57600080fd5b50620009376200206e565b6040518082815260200191505060405180910390f35b3480156200095a57600080fd5b506200096562002074565b6040518082815260200191505060405180910390f35b3480156200098857600080fd5b5062000b0f60048036036080811015620009a157600080fd5b81019080803573ffffffffffffffffffffffffffffffffffffffff16906020019092919080359060200190640100000000811115620009df57600080fd5b820183602082011115620009f257600080fd5b8035906020019184600183028401116401000000008311171562000a1557600080fd5b91908080601f016020809104026020016040519081016040528093929190818152602001838380828437600081840152601f19601f8201169050808301925050505050505091929192908035906020019064010000000081111562000a7957600080fd5b82018360208201111562000a8c57600080fd5b8035906020019184600183028401116401000000008311171562000aaf57600080fd5b91908080601f016020809104026020016040519081016040528093929190818152602001838380828437600081840152601f19601f820116905080830192505050505050509192919290803560ff1690602001909291905050506200207a565b005b600081905060015434101562000b8f576040517f08c379a00000000000000000000000000000000000000000000000000000000081526004018080602001828103825260178152602001807f496e73756666696369656e74206465706c6f792066656500000000000000000081525060200191505060405180910390fd5b6000600760008473ffffffffffffffffffffffffffffffffffffffff1673ffffffffffffffffffffffffffffffffffffffff168152602001908152602001600020600501541462000c48576040517f08c379a000000000000000000000000000000000000000000000000000000000815260040180806020018281038252601c8152602001807f546f6b656e20636f6e747261637420616c726561647920676c7565640000000081525060200191505060405180910390fd5b62000c526200245c565b82816000019073ffffffffffffffffffffffffffffffffffffffff16908173ffffffffffffffffffffffffffffffffffffffff16815250508173ffffffffffffffffffffffffffffffffffffffff166306fdde036040518163ffffffff1660e01b815260040160006040518083038186803b15801562000cd157600080fd5b505afa15801562000ce6573d6000803e3d6000fd5b505050506040513d6000823e3d601f19601f82011682018060405250602081101562000d1157600080fd5b810190808051604051939291908464010000000082111562000d3257600080fd5b8382019150602082018581111562000d4957600080fd5b825186600182028301116401000000008211171562000d6757600080fd5b8083526020830192505050908051906020019080838360005b8381101562000d9d57808201518184015260208101905062000d80565b50505050905090810190601f16801562000dcb5780820380516001836020036101000a031916815260200191505b5060405250505081606001819052508173ffffffffffffffffffffffffffffffffffffffff166395d89b416040518163ffffffff1660e01b815260040160006040518083038186803b15801562000e2157600080fd5b505afa15801562000e36573d6000803e3d6000fd5b505050506040513d6000823e3d601f19601f82011682018060405250602081101562000e6157600080fd5b810190808051604051939291908464010000000082111562000e8257600080fd5b8382019150602082018581111562000e9957600080fd5b825186600182028301116401000000008211171562000eb757600080fd5b8083526020830192505050908051906020019080838360005b8381101562000eed57808201518184015260208101905062000ed0565b50505050905090810190601f16801562000f1b5780820380516001836020036101000a031916815260200191505b5060405250505081606001819052508173ffffffffffffffffffffffffffffffffffffffff1663313ce5676040518163ffffffff1660e01b815260040160206040518083038186803b15801562000f7157600080fd5b505afa15801562000f86573d6000803e3d6000fd5b505050506040513d602081101562000f9d57600080fd5b8101908080519060200190929190505050816080019060ff16908160ff16815250508173ffffffffffffffffffffffffffffffffffffffff166318160ddd6040518163ffffffff1660e01b815260040160206040518083038186803b1580156200100657600080fd5b505afa1580156200101b573d6000803e3d6000fd5b505050506040513d60208110156200103257600080fd5b81019080805190602001909291905050508160a001818152505080600760008573ffffffffffffffffffffffffffffffffffffffff1673ffffffffffffffffffffffffffffffffffffffff16815260200190815260200160002060008201518160000160006101000a81548173ffffffffffffffffffffffffffffffffffffffff021916908373ffffffffffffffffffffffffffffffffffffffff16021790555060208201518160010160006101000a81548173ffffffffffffffffffffffffffffffffffffffff021916908373ffffffffffffffffffffffffffffffffffffffff160217905550604082015181600201908051906020019062001138929190620024c8565b50606082015181600301908051906020019062001157929190620024c8565b5060808201518160040160006101000a81548160ff021916908360ff16021790555060a0820151816005015560c082015181600601559050508260066000600354815260200190815260200160002060006101000a81548173ffffffffffffffffffffffffffffffffffffffff021916908373ffffffffffffffffffffffffffffffffffffffff160217905550600360008154809291906001019190505550505050565b6200120633620016bd565b6200121057600080fd5b60008390506200126c83600760008773ffffffffffffffffffffffffffffffffffffffff1673ffffffffffffffffffffffffffffffffffffffff168152602001908152602001600020600601546200234f90919063ffffffff16565b600760008673ffffffffffffffffffffffffffffffffffffffff1673ffffffffffffffffffffffffffffffffffffffff168152602001908152602001600020600601819055508073ffffffffffffffffffffffffffffffffffffffff1663a9059cbb83856040518363ffffffff1660e01b8152600401808373ffffffffffffffffffffffffffffffffffffffff16815260200182815260200192505050602060405180830381600087803b1580156200132457600080fd5b505af115801562001339573d6000803e3d6000fd5b505050506040513d60208110156200135057600080fd5b81019080805190602001909291905050505050505050565b60008290508073ffffffffffffffffffffffffffffffffffffffff166323b872dd3330856040518463ffffffff1660e01b8152600401808473ffffffffffffffffffffffffffffffffffffffff1681526020018373ffffffffffffffffffffffffffffffffffffffff1681526020018281526020019350505050602060405180830381600087803b158015620013fd57600080fd5b505af115801562001412573d6000803e3d6000fd5b505050506040513d60208110156200142957600080fd5b8101908080519060200190929190505050506002543411620014b3576040517f08c379a00000000000000000000000000000000000000000000000000000000081526004018080602001828103825260158152602001807f496e73756666696369656e74204d696e7420466565000000000000000000000081525060200191505060405180910390fd5b620014bd6200255f565b83816000019073ffffffffffffffffffffffffffffffffffffffff16908173ffffffffffffffffffffffffffffffffffffffff16815250508281604001818152505033816020019073ffffffffffffffffffffffffffffffffffffffff16908173ffffffffffffffffffffffffffffffffffffffff16815250508060086000600354815260200190815260200160002060008201518160000160006101000a81548173ffffffffffffffffffffffffffffffffffffffff021916908373ffffffffffffffffffffffffffffffffffffffff16021790555060208201518160010160006101000a81548173ffffffffffffffffffffffffffffffffffffffff021916908373ffffffffffffffffffffffffffffffffffffffff1602179055506040820151816002015560608201518160030160006101000a81548160ff0219169083151502179055509050506003600081548092919060010191905055506200167183600760008773ffffffffffffffffffffffffffffffffffffffff1673ffffffffffffffffffffffffffffffffffffffff16815260200190815260200160002060060154620023d390919063ffffffff16565b600760008673ffffffffffffffffffffffffffffffffffffffff1673ffffffffffffffffffffffffffffffffffffffff1681526020019081526020016000206006018190555050505050565b60008173ffffffffffffffffffffffffffffffffffffffff1660008054906101000a900473ffffffffffffffffffffffffffffffffffffffff1673ffffffffffffffffffffffffffffffffffffffff161480620017db575060008054906101000a900473ffffffffffffffffffffffffffffffffffffffff1673ffffffffffffffffffffffffffffffffffffffff16632f54bf6e836040518263ffffffff1660e01b8152600401808273ffffffffffffffffffffffffffffffffffffffff16815260200191505060206040518083038186803b1580156200179d57600080fd5b505afa158015620017b2573d6000803e3d6000fd5b505050506040513d6020811015620017c957600080fd5b81019080805190602001909291905050505b9050919050565b60096020528060005260406000206000915090508060000160009054906101000a900473ffffffffffffffffffffffffffffffffffffffff16908060010160009054906101000a900473ffffffffffffffffffffffffffffffffffffffff16908060010160149054906101000a900460ff16905083565b60025481565b6200186a33620016bd565b6200187457600080fd5b8060028190555050565b3373ffffffffffffffffffffffffffffffffffffffff1660008054906101000a900473ffffffffffffffffffffffffffffffffffffffff1673ffffffffffffffffffffffffffffffffffffffff1614620018d757600080fd5b600060149054906101000a900460ff16620018f157600080fd5b60008060146101000a81548160ff0219169083151502179055507f7805862f689e2f13df9f062ff482ad3ad112aca9e0847911ed832e158c525b3360405160405180910390a1565b60035481565b60008054906101000a900473ffffffffffffffffffffffffffffffffffffffff1681565b60076020528060005260406000206000915090508060000160009054906101000a900473ffffffffffffffffffffffffffffffffffffffff16908060010160009054906101000a900473ffffffffffffffffffffffffffffffffffffffff1690806002018054600181600116156101000203166002900480601f01602080910402602001604051908101604052809291908181526020018280546001816001161561010002031660029004801562001a5f5780601f1062001a335761010080835404028352916020019162001a5f565b820191906000526020600020905b81548152906001019060200180831162001a4157829003601f168201915b505050505090806003018054600181600116156101000203166002900480601f01602080910402602001604051908101604052809291908181526020018280546001816001161561010002031660029004801562001b015780601f1062001ad55761010080835404028352916020019162001b01565b820191906000526020600020905b81548152906001019060200180831162001ae357829003601f168201915b5050505050908060040160009054906101000a900460ff16908060050154908060060154905087565b600060149054906101000a900460ff1681565b600a6020528060005260406000206000915090508060000160009054906101000a900473ffffffffffffffffffffffffffffffffffffffff16908060010160009054906101000a900473ffffffffffffffffffffffffffffffffffffffff16908060020154908060030160009054906101000a900460ff16905084565b3373ffffffffffffffffffffffffffffffffffffffff1660008054906101000a900473ffffffffffffffffffffffffffffffffffffffff1673ffffffffffffffffffffffffffffffffffffffff161462001c1357600080fd5b600060149054906101000a900460ff161562001c2e57600080fd5b6001600060146101000a81548160ff0219169083151502179055507f6985a02210a168e66602d3235cb6db0e70f92b3ba4d376a33c0f3d9434bff62560405160405180910390a1565b62001c8233620016bd565b62001c8c57600080fd5b8060018190555050565b60066020528060005260406000206000915054906101000a900473ffffffffffffffffffffffffffffffffffffffff1681565b60086020528060005260406000206000915090508060000160009054906101000a900473ffffffffffffffffffffffffffffffffffffffff16908060010160009054906101000a900473ffffffffffffffffffffffffffffffffffffffff16908060020154908060030160009054906101000a900460ff16905084565b60055481565b62001d5733620016bd565b62001d6157600080fd5b8073ffffffffffffffffffffffffffffffffffffffff166108fc839081150290604051600060405180830381858888f1935050505015801562001da8573d6000803e3d6000fd5b505050565b60011515600960008373ffffffffffffffffffffffffffffffffffffffff1673ffffffffffffffffffffffffffffffffffffffff16815260200190815260200160002060010160149054906101000a900460ff1615151462001e77576040517f08c379a000000000000000000000000000000000000000000000000000000000815260040180806020018281038252601c8152602001807f53706563696669656420746f6b656e206e6f74206465706c6f7965640000000081525060200191505060405180910390fd5b8073ffffffffffffffffffffffffffffffffffffffff16636c307d6983336040518363ffffffff1660e01b8152600401808381526020018273ffffffffffffffffffffffffffffffffffffffff16815260200192505050600060405180830381600087803b15801562001ee957600080fd5b505af115801562001efe573d6000803e3d6000fd5b5050505062001f0c620025b5565b81816000019073ffffffffffffffffffffffffffffffffffffffff16908173ffffffffffffffffffffffffffffffffffffffff168152505033816020019073ffffffffffffffffffffffffffffffffffffffff16908173ffffffffffffffffffffffffffffffffffffffff16815250508281604001818152505080600a6000600554815260200190815260200160002060008201518160000160006101000a81548173ffffffffffffffffffffffffffffffffffffffff021916908373ffffffffffffffffffffffffffffffffffffffff16021790555060208201518160010160006101000a81548173ffffffffffffffffffffffffffffffffffffffff021916908373ffffffffffffffffffffffffffffffffffffffff1602179055506040820151816002015560608201518160030160006101000a81548160ff021916908315150217905550905050600560008154809291906001019190505550505050565b60015481565b60045481565b6200208533620016bd565b6200208f57600080fd5b600083838387604051620020a3906200260b565b8080602001806020018560ff1681526020018473ffffffffffffffffffffffffffffffffffffffff168152602001838103835287818151815260200191508051906020019080838360005b838110156200210b578082015181840152602081019050620020ee565b50505050905090810190601f168015620021395780820380516001836020036101000a031916815260200191505b50838103825286818151815260200191508051906020019080838360005b838110156200217457808201518184015260208101905062002157565b50505050905090810190601f168015620021a25780820380516001836020036101000a031916815260200191505b509650505050505050604051809103906000f080158015620021c8573d6000803e3d6000fd5b509050620021d562002619565b81816020019073ffffffffffffffffffffffffffffffffffffffff16908173ffffffffffffffffffffffffffffffffffffffff168152505085816000019073ffffffffffffffffffffffffffffffffffffffff16908173ffffffffffffffffffffffffffffffffffffffff1681525050600181604001901515908115158152505080600960008473ffffffffffffffffffffffffffffffffffffffff1673ffffffffffffffffffffffffffffffffffffffff16815260200190815260200160002060008201518160000160006101000a81548173ffffffffffffffffffffffffffffffffffffffff021916908373ffffffffffffffffffffffffffffffffffffffff16021790555060208201518160010160006101000a81548173ffffffffffffffffffffffffffffffffffffffff021916908373ffffffffffffffffffffffffffffffffffffffff16021790555060408201518160010160146101000a81548160ff021916908315150217905550905050505050505050565b600082821115620023c8576040517f08c379a000000000000000000000000000000000000000000000000000000000815260040180806020018281038252601e8152602001807f536166654d6174683a207375627472616374696f6e206f766572666c6f77000081525060200191505060405180910390fd5b818303905092915050565b60008082840190508381101562002452576040517f08c379a000000000000000000000000000000000000000000000000000000000815260040180806020018281038252601b8152602001807f536166654d6174683a206164646974696f6e206f766572666c6f77000000000081525060200191505060405180910390fd5b8091505092915050565b6040518060e00160405280600073ffffffffffffffffffffffffffffffffffffffff168152602001600073ffffffffffffffffffffffffffffffffffffffff1681526020016060815260200160608152602001600060ff16815260200160008152602001600081525090565b828054600181600116156101000203166002900490600052602060002090601f0160209004810192826200250057600085556200254c565b82601f106200251b57805160ff19168380011785556200254c565b828001600101855582156200254c579182015b828111156200254b5782518255916020019190600101906200252e565b5b5090506200255b919062002668565b5090565b6040518060800160405280600073ffffffffffffffffffffffffffffffffffffffff168152602001600073ffffffffffffffffffffffffffffffffffffffff168152602001600081526020016000151581525090565b6040518060800160405280600073ffffffffffffffffffffffffffffffffffffffff168152602001600073ffffffffffffffffffffffffffffffffffffffff168152602001600081526020016000151581525090565b612021806200268883390190565b6040518060600160405280600073ffffffffffffffffffffffffffffffffffffffff168152602001600073ffffffffffffffffffffffffffffffffffffffff1681526020016000151581525090565b5b808211156200268357600081600090555060010162002669565b509056fe60806040523480156200001157600080fd5b506040516200202138038062002021833981810160405260808110156200003757600080fd5b81019080805160405193929190846401000000008211156200005857600080fd5b838201915060208201858111156200006f57600080fd5b82518660018202830111640100000000821117156200008d57600080fd5b8083526020830192505050908051906020019080838360005b83811015620000c3578082015181840152602081019050620000a6565b50505050905090810190601f168015620000f15780820380516001836020036101000a031916815260200191505b50604052602001805160405193929190846401000000008211156200011557600080fd5b838201915060208201858111156200012c57600080fd5b82518660018202830111640100000000821117156200014a57600080fd5b8083526020830192505050908051906020019080838360005b838110156200018057808201518184015260208101905062000163565b50505050905090810190601f168015620001ae5780820380516001836020036101000a031916815260200191505b5060405260200180519060200190929190805190602001909291905050508383838260039080519060200190620001e792919062000323565b5081600490805190602001906200020092919062000323565b5080600560006101000a81548160ff021916908360ff1602179055505050506000620002316200031b60201b60201c565b905080600560016101000a81548173ffffffffffffffffffffffffffffffffffffffff021916908373ffffffffffffffffffffffffffffffffffffffff1602179055508073ffffffffffffffffffffffffffffffffffffffff16600073ffffffffffffffffffffffffffffffffffffffff167f8be0079c531659141344cd1fd0a4f28419497f9722a3daafe3b4186f6b6457e060405160405180910390a35080600660006101000a81548173ffffffffffffffffffffffffffffffffffffffff021916908373ffffffffffffffffffffffffffffffffffffffff16021790555050505050620003d9565b600033905090565b828054600181600116156101000203166002900490600052602060002090601f0160209004810192826200035b5760008555620003a7565b82601f106200037657805160ff1916838001178555620003a7565b82800160010185558215620003a7579182015b82811115620003a657825182559160200191906001019062000389565b5b509050620003b69190620003ba565b5090565b5b80821115620003d5576000816000905550600101620003bb565b5090565b611c3880620003e96000396000f3fe608060405234801561001057600080fd5b506004361061010b5760003560e01c8063715018a6116100a2578063a9059cbb11610071578063a9059cbb146104e9578063ab5867841461054d578063ad49ffc91461059b578063dd62ed3e146105cf578063f2fde38b146106475761010b565b8063715018a6146103c45780638da5cb5b146103ce57806395d89b4114610402578063a457c2d7146104855761010b565b8063313ce567116100de578063313ce5671461029957806339509351146102ba5780636c307d691461031e57806370a082311461036c5761010b565b806306fdde0314610110578063095ea7b31461019357806318160ddd146101f757806323b872dd14610215575b600080fd5b61011861068b565b6040518080602001828103825283818151815260200191508051906020019080838360005b8381101561015857808201518184015260208101905061013d565b50505050905090810190601f1680156101855780820380516001836020036101000a031916815260200191505b509250505060405180910390f35b6101df600480360360408110156101a957600080fd5b81019080803573ffffffffffffffffffffffffffffffffffffffff1690602001909291908035906020019092919050505061072d565b60405180821515815260200191505060405180910390f35b6101ff61074b565b6040518082815260200191505060405180910390f35b6102816004803603606081101561022b57600080fd5b81019080803573ffffffffffffffffffffffffffffffffffffffff169060200190929190803573ffffffffffffffffffffffffffffffffffffffff16906020019092919080359060200190929190505050610755565b60405180821515815260200191505060405180910390f35b6102a161082e565b604051808260ff16815260200191505060405180910390f35b610306600480360360408110156102d057600080fd5b81019080803573ffffffffffffffffffffffffffffffffffffffff16906020019092919080359060200190929190505050610845565b60405180821515815260200191505060405180910390f35b61036a6004803603604081101561033457600080fd5b8101908080359060200190929190803573ffffffffffffffffffffffffffffffffffffffff1690602001909291905050506108f8565b005b6103ae6004803603602081101561038257600080fd5b81019080803573ffffffffffffffffffffffffffffffffffffffff1690602001909291905050506109b5565b6040518082815260200191505060405180910390f35b6103cc6109fd565b005b6103d6610b6d565b604051808273ffffffffffffffffffffffffffffffffffffffff16815260200191505060405180910390f35b61040a610b97565b6040518080602001828103825283818151815260200191508051906020019080838360005b8381101561044a57808201518184015260208101905061042f565b50505050905090810190601f1680156104775780820380516001836020036101000a031916815260200191505b509250505060405180910390f35b6104d16004803603604081101561049b57600080fd5b81019080803573ffffffffffffffffffffffffffffffffffffffff16906020019092919080359060200190929190505050610c39565b60405180821515815260200191505060405180910390f35b610535600480360360408110156104ff57600080fd5b81019080803573ffffffffffffffffffffffffffffffffffffffff16906020019092919080359060200190929190505050610d06565b60405180821515815260200191505060405180910390f35b6105996004803603604081101561056357600080fd5b8101908080359060200190929190803573ffffffffffffffffffffffffffffffffffffffff169060200190929190505050610d24565b005b6105a3610de1565b604051808273ffffffffffffffffffffffffffffffffffffffff16815260200191505060405180910390f35b610631600480360360408110156105e557600080fd5b81019080803573ffffffffffffffffffffffffffffffffffffffff169060200190929190803573ffffffffffffffffffffffffffffffffffffffff169060200190929190505050610e07565b6040518082815260200191505060405180910390f35b6106896004803603602081101561065d57600080fd5b81019080803573ffffffffffffffffffffffffffffffffffffffff169060200190929190505050610e8e565b005b606060038054600181600116156101000203166002900480601f0160208091040260200160405190810160405280929190818152602001828054600181600116156101000203166002900480156107235780601f106106f857610100808354040283529160200191610723565b820191906000526020600020905b81548152906001019060200180831161070657829003601f168201915b5050505050905090565b600061074161073a611083565b848461108b565b6001905092915050565b6000600254905090565b6000610762848484611282565b6108238461076e611083565b61081e85604051806060016040528060288152602001611b4c60289139600160008b73ffffffffffffffffffffffffffffffffffffffff1673ffffffffffffffffffffffffffffffffffffffff16815260200190815260200160002060006107d4611083565b73ffffffffffffffffffffffffffffffffffffffff1673ffffffffffffffffffffffffffffffffffffffff168152602001908152602001600020546115439092919063ffffffff16565b61108b565b600190509392505050565b6000600560009054906101000a900460ff16905090565b60006108ee610852611083565b846108e98560016000610863611083565b73ffffffffffffffffffffffffffffffffffffffff1673ffffffffffffffffffffffffffffffffffffffff16815260200190815260200160002060008973ffffffffffffffffffffffffffffffffffffffff1673ffffffffffffffffffffffffffffffffffffffff168152602001908152602001600020546115fd90919063ffffffff16565b61108b565b6001905092915050565b610900611083565b73ffffffffffffffffffffffffffffffffffffffff1661091e610b6d565b73ffffffffffffffffffffffffffffffffffffffff16146109a7576040517f08c379a00000000000000000000000000000000000000000000000000000000081526004018080602001828103825260208152602001807f4f776e61626c653a2063616c6c6572206973206e6f7420746865206f776e657281525060200191505060405180910390fd5b6109b18183611685565b5050565b60008060008373ffffffffffffffffffffffffffffffffffffffff1673ffffffffffffffffffffffffffffffffffffffff168152602001908152602001600020549050919050565b610a05611083565b73ffffffffffffffffffffffffffffffffffffffff16610a23610b6d565b73ffffffffffffffffffffffffffffffffffffffff1614610aac576040517f08c379a00000000000000000000000000000000000000000000000000000000081526004018080602001828103825260208152602001807f4f776e61626c653a2063616c6c6572206973206e6f7420746865206f776e657281525060200191505060405180910390fd5b600073ffffffffffffffffffffffffffffffffffffffff16600560019054906101000a900473ffffffffffffffffffffffffffffffffffffffff1673ffffffffffffffffffffffffffffffffffffffff167f8be0079c531659141344cd1fd0a4f28419497f9722a3daafe3b4186f6b6457e060405160405180910390a36000600560016101000a81548173ffffffffffffffffffffffffffffffffffffffff021916908373ffffffffffffffffffffffffffffffffffffffff160217905550565b6000600560019054906101000a900473ffffffffffffffffffffffffffffffffffffffff16905090565b606060048054600181600116156101000203166002900480601f016020809104026020016040519081016040528092919081815260200182805460018160011615610100020316600290048015610c2f5780601f10610c0457610100808354040283529160200191610c2f565b820191906000526020600020905b815481529060010190602001808311610c1257829003601f168201915b5050505050905090565b6000610cfc610c46611083565b84610cf785604051806060016040528060258152602001611bde6025913960016000610c70611083565b73ffffffffffffffffffffffffffffffffffffffff1673ffffffffffffffffffffffffffffffffffffffff16815260200190815260200160002060008a73ffffffffffffffffffffffffffffffffffffffff1673ffffffffffffffffffffffffffffffffffffffff168152602001908152602001600020546115439092919063ffffffff16565b61108b565b6001905092915050565b6000610d1a610d13611083565b8484611282565b6001905092915050565b610d2c611083565b73ffffffffffffffffffffffffffffffffffffffff16610d4a610b6d565b73ffffffffffffffffffffffffffffffffffffffff1614610dd3576040517f08c379a00000000000000000000000000000000000000000000000000000000081526004018080602001828103825260208152602001807f4f776e61626c653a2063616c6c6572206973206e6f7420746865206f776e657281525060200191505060405180910390fd5b610ddd8183611849565b5050565b600660009054906101000a900473ffffffffffffffffffffffffffffffffffffffff1681565b6000600160008473ffffffffffffffffffffffffffffffffffffffff1673ffffffffffffffffffffffffffffffffffffffff16815260200190815260200160002060008373ffffffffffffffffffffffffffffffffffffffff1673ffffffffffffffffffffffffffffffffffffffff16815260200190815260200160002054905092915050565b610e96611083565b73ffffffffffffffffffffffffffffffffffffffff16610eb4610b6d565b73ffffffffffffffffffffffffffffffffffffffff1614610f3d576040517f08c379a00000000000000000000000000000000000000000000000000000000081526004018080602001828103825260208152602001807f4f776e61626c653a2063616c6c6572206973206e6f7420746865206f776e657281525060200191505060405180910390fd5b600073ffffffffffffffffffffffffffffffffffffffff168173ffffffffffffffffffffffffffffffffffffffff161415610fc3576040517f08c379a0000000000000000000000000000000000000000000000000000000008152600401808060200182810382526026815260200180611ade6026913960400191505060405180910390fd5b8073ffffffffffffffffffffffffffffffffffffffff16600560019054906101000a900473ffffffffffffffffffffffffffffffffffffffff1673ffffffffffffffffffffffffffffffffffffffff167f8be0079c531659141344cd1fd0a4f28419497f9722a3daafe3b4186f6b6457e060405160405180910390a380600560016101000a81548173ffffffffffffffffffffffffffffffffffffffff021916908373ffffffffffffffffffffffffffffffffffffffff16021790555050565b600033905090565b600073ffffffffffffffffffffffffffffffffffffffff168373ffffffffffffffffffffffffffffffffffffffff161415611111576040517f08c379a0000000000000000000000000000000000000000000000000000000008152600401808060200182810382526024815260200180611bba6024913960400191505060405180910390fd5b600073ffffffffffffffffffffffffffffffffffffffff168273ffffffffffffffffffffffffffffffffffffffff161415611197576040517f08c379a0000000000000000000000000000000000000000000000000000000008152600401808060200182810382526022815260200180611b046022913960400191505060405180910390fd5b80600160008573ffffffffffffffffffffffffffffffffffffffff1673ffffffffffffffffffffffffffffffffffffffff16815260200190815260200160002060008473ffffffffffffffffffffffffffffffffffffffff1673ffffffffffffffffffffffffffffffffffffffff168152602001908152602001600020819055508173ffffffffffffffffffffffffffffffffffffffff168373ffffffffffffffffffffffffffffffffffffffff167f8c5be1e5ebec7d5bd14f71427d1e84f3dd0314c0f7b2291e5b200ac8c7c3b925836040518082815260200191505060405180910390a3505050565b600073ffffffffffffffffffffffffffffffffffffffff168373ffffffffffffffffffffffffffffffffffffffff161415611308576040517f08c379a0000000000000000000000000000000000000000000000000000000008152600401808060200182810382526025815260200180611b956025913960400191505060405180910390fd5b600073ffffffffffffffffffffffffffffffffffffffff168273ffffffffffffffffffffffffffffffffffffffff16141561138e576040517f08c379a0000000000000000000000000000000000000000000000000000000008152600401808060200182810382526023815260200180611a996023913960400191505060405180910390fd5b611399838383611a10565b61140481604051806060016040528060268152602001611b26602691396000808773ffffffffffffffffffffffffffffffffffffffff1673ffffffffffffffffffffffffffffffffffffffff168152602001908152602001600020546115439092919063ffffffff16565b6000808573ffffffffffffffffffffffffffffffffffffffff1673ffffffffffffffffffffffffffffffffffffffff16815260200190815260200160002081905550611497816000808573ffffffffffffffffffffffffffffffffffffffff1673ffffffffffffffffffffffffffffffffffffffff168152602001908152602001600020546115fd90919063ffffffff16565b6000808473ffffffffffffffffffffffffffffffffffffffff1673ffffffffffffffffffffffffffffffffffffffff168152602001908152602001600020819055508173ffffffffffffffffffffffffffffffffffffffff168373ffffffffffffffffffffffffffffffffffffffff167fddf252ad1be2c89b69c2b068fc378daa952ba7f163c4a11628f55a4df523b3ef836040518082815260200191505060405180910390a3505050565b60008383111582906115f0576040517f08c379a00000000000000000000000000000000000000000000000000000000081526004018080602001828103825283818151815260200191508051906020019080838360005b838110156115b557808201518184015260208101905061159a565b50505050905090810190601f1680156115e25780820380516001836020036101000a031916815260200191505b509250505060405180910390fd5b5082840390509392505050565b60008082840190508381101561167b576040517f08c379a000000000000000000000000000000000000000000000000000000000815260040180806020018281038252601b8152602001807f536166654d6174683a206164646974696f6e206f766572666c6f77000000000081525060200191505060405180910390fd5b8091505092915050565b600073ffffffffffffffffffffffffffffffffffffffff168273ffffffffffffffffffffffffffffffffffffffff16141561170b576040517f08c379a0000000000000000000000000000000000000000000000000000000008152600401808060200182810382526021815260200180611b746021913960400191505060405180910390fd5b61171782600083611a10565b61178281604051806060016040528060228152602001611abc602291396000808673ffffffffffffffffffffffffffffffffffffffff1673ffffffffffffffffffffffffffffffffffffffff168152602001908152602001600020546115439092919063ffffffff16565b6000808473ffffffffffffffffffffffffffffffffffffffff1673ffffffffffffffffffffffffffffffffffffffff168152602001908152602001600020819055506117d981600254611a1590919063ffffffff16565b600281905550600073ffffffffffffffffffffffffffffffffffffffff168273ffffffffffffffffffffffffffffffffffffffff167fddf252ad1be2c89b69c2b068fc378daa952ba7f163c4a11628f55a4df523b3ef836040518082815260200191505060405180910390a35050565b600073ffffffffffffffffffffffffffffffffffffffff168273ffffffffffffffffffffffffffffffffffffffff1614156118ec576040517f08c379a000000000000000000000000000000000000000000000000000000000815260040180806020018281038252601f8152602001807f45524332303a206d696e7420746f20746865207a65726f20616464726573730081525060200191505060405180910390fd5b6118f860008383611a10565b61190d816002546115fd90919063ffffffff16565b600281905550611964816000808573ffffffffffffffffffffffffffffffffffffffff1673ffffffffffffffffffffffffffffffffffffffff168152602001908152602001600020546115fd90919063ffffffff16565b6000808473ffffffffffffffffffffffffffffffffffffffff1673ffffffffffffffffffffffffffffffffffffffff168152602001908152602001600020819055508173ffffffffffffffffffffffffffffffffffffffff16600073ffffffffffffffffffffffffffffffffffffffff167fddf252ad1be2c89b69c2b068fc378daa952ba7f163c4a11628f55a4df523b3ef836040518082815260200191505060405180910390a35050565b505050565b600082821115611a8d576040517f08c379a000000000000000000000000000000000000000000000000000000000815260040180806020018281038252601e8152602001807f536166654d6174683a207375627472616374696f6e206f766572666c6f77000081525060200191505060405180910390fd5b81830390509291505056fe45524332303a207472616e7366657220746f20746865207a65726f206164647265737345524332303a206275726e20616d6f756e7420657863656564732062616c616e63654f776e61626c653a206e6577206f776e657220697320746865207a65726f206164647265737345524332303a20617070726f766520746f20746865207a65726f206164647265737345524332303a207472616e7366657220616d6f756e7420657863656564732062616c616e636545524332303a207472616e7366657220616d6f756e74206578636565647320616c6c6f77616e636545524332303a206275726e2066726f6d20746865207a65726f206164647265737345524332303a207472616e736665722066726f6d20746865207a65726f206164647265737345524332303a20617070726f76652066726f6d20746865207a65726f206164647265737345524332303a2064656372656173656420616c6c6f77616e63652062656c6f77207a65726fa2646970667358221220e0f1f676fe7a5c3f36b4f43177e4349c71269bfe47e3f480b5b454102f73545264736f6c63430007040033a26469706673582212203374c2a637c4f42a703cbe3406138fd4a49a12f2979b1fe622510b9478530d5964736f6c63430007040033",
  "immutableReferences": {},
  "source": "//SPDX-License-Identifier: UNLICENSED\npragma solidity >=0.6.0 <0.8.0;\n\nimport \"./SafeMath.sol\";\nimport \"./MultiOwnableContract.sol\";\nimport \"./mirrorERC20.sol\";\n\ncontract GlueReceiver is MultiOwnableContract {\n    using SafeMath for uint256;\n\n    struct BEP20TokenData {\n        address ERC20Address;\n        address BEP20Address;\n        string name;\n        string symbol;\n        uint8 decimals;\n        uint256 totalSupply;\n        uint256 BEP20Supply;\n    }\n\n    struct BEP20MintRequest {\n        address tokenAddress;\n        address requestOwner;\n        uint256 amount;\n        bool isResolved;\n    }\n\n    struct BEP20UnlockRequest {\n        address tokenAddress;\n        address requestOwner;\n        uint256 amount;\n        bool isResolved;\n    }\n\n    struct mirrorToken {\n        address BEP20Address;\n        address ERC20Address;\n        bool deployed;\n    }\n\n    uint256 public BEP20_DEPLOY_FEE;\n\n    uint256 public BEP20_MINT_FEE;\n\n    uint256 public BEP20TokenRequestsLength;\n\n    uint256 public BEP20MintRequestsLength;\n\n    uint256 public BEP20UnlockRequestsLength;\n\n    mapping(uint256 => address) public BEP20TokenRequests;\n\n    mapping(address => BEP20TokenData) public BEP20Token;\n\n    mapping(uint256 => BEP20MintRequest) public BEP20MintRequests;\n\n    mapping(address => mirrorToken) public mirroredBEP20;\n\n    mapping(uint256 => BEP20UnlockRequest) public BEP20UnlockRequests;\n\n    constructor(\n        uint256 _deploy_fee,\n        uint256 _mint_fee,\n        address addr\n    ) MultiOwnableContract(addr) {\n        BEP20TokenRequestsLength = 0;\n        BEP20MintRequestsLength = 0;\n        BEP20UnlockRequestsLength = 0;\n        BEP20_DEPLOY_FEE = _deploy_fee;\n        BEP20_MINT_FEE = _mint_fee;\n    }\n\n    function glueBEP20(address tokenAddress) external payable {\n        IERC20 token = IERC20(tokenAddress);\n\n        require(msg.value >= BEP20_DEPLOY_FEE, \"Insufficient deploy fee\");\n        require(\n            BEP20Token[tokenAddress].totalSupply == 0,\n            \"Token contract already glued\"\n        );\n\n        BEP20TokenData memory deployedToken;\n\n        deployedToken.ERC20Address = tokenAddress;\n        deployedToken.symbol = token.name();\n        deployedToken.symbol = token.symbol();\n        deployedToken.decimals = token.decimals();\n        deployedToken.totalSupply = token.totalSupply();\n\n        //declare and map the new BEP20Token\n        BEP20Token[tokenAddress] = deployedToken;\n        //Create a pending BEP20 deployment request\n        BEP20TokenRequests[BEP20TokenRequestsLength] = tokenAddress;\n        //Increase the requests counter\n        BEP20TokenRequestsLength++;\n    }\n\n    function deployMirrorERC20(\n        address BEP20Address,\n        string memory __name,\n        string memory __symbol,\n        uint8 __decimals\n    ) external onlyOwner {\n        mirrorERC20 mirrorTokenContract =\n            new mirrorERC20(__name, __symbol, __decimals, BEP20Address);\n        mirrorToken memory mirrorERC20Token;\n        mirrorERC20Token.ERC20Address = address(mirrorTokenContract);\n        mirrorERC20Token.BEP20Address = BEP20Address;\n        mirrorERC20Token.deployed = true;\n        mirroredBEP20[address(mirrorTokenContract)] = mirrorERC20Token;\n    }\n\n    function increaseBEP20Supply(address tokenAddress, uint256 amount)\n        external\n        payable\n    {\n        IERC20 token = IERC20(tokenAddress);\n\n        token.transferFrom(msg.sender, address(this), amount); // send the tokens to this contract\n\n        require(msg.value > BEP20_MINT_FEE, \"Insufficient Mint Fee\");\n\n        BEP20MintRequest memory request;\n        request.tokenAddress = tokenAddress;\n        request.amount = amount;\n        request.requestOwner = msg.sender;\n        BEP20MintRequests[BEP20TokenRequestsLength] = request;\n        BEP20TokenRequestsLength++; // create the mint request for Bep20 and increase the requests length\n\n        BEP20Token[tokenAddress].BEP20Supply = BEP20Token[tokenAddress]\n            .BEP20Supply\n            .add(amount);\n    }\n\n    function decreaseBEP20Supply(\n        address tokenAddress,\n        uint256 amount,\n        address receiver\n    ) external onlyOwner {\n        IERC20 token = IERC20(tokenAddress);\n\n        BEP20Token[tokenAddress].BEP20Supply = BEP20Token[tokenAddress]\n            .BEP20Supply\n            .sub(amount);\n        token.transfer(receiver, amount);\n    }\n\n    function requestUnlock(uint256 amount, address mirrorTokenAddress)\n        external\n    {\n        require(\n            mirroredBEP20[mirrorTokenAddress].deployed == true,\n            \"Specified token not deployed\"\n        );\n        mirrorERC20(mirrorTokenAddress).burnSupply(amount, msg.sender);\n        BEP20UnlockRequest memory request;\n        request.tokenAddress = mirrorTokenAddress;\n        request.requestOwner = msg.sender;\n        request.amount = amount;\n\n        BEP20UnlockRequests[BEP20UnlockRequestsLength] = request;\n        BEP20UnlockRequestsLength++;\n    }\n\n    function setBEP20DeployFee(uint256 fee) external onlyOwner {\n        BEP20_DEPLOY_FEE = fee;\n    }\n\n    function setBEP20MintFee(uint256 fee) external onlyOwner {\n        BEP20_MINT_FEE = fee;\n    }\n\n    function withdrawFees(uint256 amount, address payable to)\n        external\n        onlyOwner\n    {\n        to.transfer(amount);\n    }\n}\n",
  "sourcePath": "/Users/codrin/Projects/erc20-bep20-bridge/contracts/glueReceiver.sol",
  "compiler": {
    "name": "solc",
    "version": "0.7.4+commit.3f05b770.Emscripten.clang"
  },
  "schemaVersion": "3.3.3",
  "updatedAt": "2021-02-19T01:04:41.422Z",
  "networkType": "ethereum",
  "devdoc": {
    "kind": "dev",
    "methods": {
      "pause()": {
        "details": "called by any MSW owner to pause, triggers stopped state"
      },
      "unpause()": {
        "details": "called by the MSW (all owners) to unpause, returns to normal state"
      }
    },
    "version": 1
  },
  "userdoc": {
    "kind": "user",
    "methods": {},
    "version": 1
  }
}