{
  "contractName": "MultiOwnableContract",
  "abi": [
    {
      "inputs": [
        {
          "internalType": "address",
          "name": "_wallet",
          "type": "address"
        }
      ],
      "stateMutability": "nonpayable",
      "type": "constructor"
    },
    {
      "anonymous": false,
      "inputs": [
        {
          "indexed": true,
          "internalType": "address",
          "name": "_contract",
          "type": "address"
        },
        {
          "indexed": true,
          "internalType": "address",
          "name": "_wallet",
          "type": "address"
        }
      ],
      "name": "MultiOwnableWalletSet",
      "type": "event"
    },
    {
      "anonymous": false,
      "inputs": [],
      "name": "Pause",
      "type": "event"
    },
    {
      "anonymous": false,
      "inputs": [],
      "name": "Unpause",
      "type": "event"
    },
    {
      "inputs": [],
      "name": "paused",
      "outputs": [
        {
          "internalType": "bool",
          "name": "",
          "type": "bool"
        }
      ],
      "stateMutability": "view",
      "type": "function"
    },
    {
      "inputs": [],
      "name": "wallet",
      "outputs": [
        {
          "internalType": "contract MultiSigWallet",
          "name": "",
          "type": "address"
        }
      ],
      "stateMutability": "view",
      "type": "function"
    },
    {
      "inputs": [
        {
          "internalType": "address",
          "name": "_address",
          "type": "address"
        }
      ],
      "name": "isOwner",
      "outputs": [
        {
          "internalType": "bool",
          "name": "",
          "type": "bool"
        }
      ],
      "stateMutability": "view",
      "type": "function"
    },
    {
      "inputs": [],
      "name": "pause",
      "outputs": [],
      "stateMutability": "nonpayable",
      "type": "function"
    },
    {
      "inputs": [],
      "name": "unpause",
      "outputs": [],
      "stateMutability": "nonpayable",
      "type": "function"
    }
  ],
  "bytecode": "0x608060405260008060146101000a81548160ff02191690831515021790555034801561002a57600080fd5b506040516105283803806105288339818101604052602081101561004d57600080fd5b8101908080519060200190929190505050806000806101000a81548173ffffffffffffffffffffffffffffffffffffffff021916908373ffffffffffffffffffffffffffffffffffffffff1602179055508073ffffffffffffffffffffffffffffffffffffffff163073ffffffffffffffffffffffffffffffffffffffff167fafcdd415329178553b69a5c7b7ece5d86014afa3335a808a26f32110981061a760405160405180910390a350610420806101086000396000f3fe608060405234801561001057600080fd5b50600436106100575760003560e01c80632f54bf6e1461005c5780633f4ba83a146100b6578063521eb273146100c05780635c975abb146100f45780638456cb5914610114575b600080fd5b61009e6004803603602081101561007257600080fd5b81019080803573ffffffffffffffffffffffffffffffffffffffff16906020019092919050505061011e565b60405180821515815260200191505060405180910390f35b6100be61023f565b005b6100c86102f8565b604051808273ffffffffffffffffffffffffffffffffffffffff16815260200191505060405180910390f35b6100fc61031c565b60405180821515815260200191505060405180910390f35b61011c61032f565b005b60008173ffffffffffffffffffffffffffffffffffffffff1660008054906101000a900473ffffffffffffffffffffffffffffffffffffffff1673ffffffffffffffffffffffffffffffffffffffff161480610238575060008054906101000a900473ffffffffffffffffffffffffffffffffffffffff1673ffffffffffffffffffffffffffffffffffffffff16632f54bf6e836040518263ffffffff1660e01b8152600401808273ffffffffffffffffffffffffffffffffffffffff16815260200191505060206040518083038186803b1580156101fc57600080fd5b505afa158015610210573d6000803e3d6000fd5b505050506040513d602081101561022657600080fd5b81019080805190602001909291905050505b9050919050565b3373ffffffffffffffffffffffffffffffffffffffff1660008054906101000a900473ffffffffffffffffffffffffffffffffffffffff1673ffffffffffffffffffffffffffffffffffffffff161461029757600080fd5b600060149054906101000a900460ff166102b057600080fd5b60008060146101000a81548160ff0219169083151502179055507f7805862f689e2f13df9f062ff482ad3ad112aca9e0847911ed832e158c525b3360405160405180910390a1565b60008054906101000a900473ffffffffffffffffffffffffffffffffffffffff1681565b600060149054906101000a900460ff1681565b3373ffffffffffffffffffffffffffffffffffffffff1660008054906101000a900473ffffffffffffffffffffffffffffffffffffffff1673ffffffffffffffffffffffffffffffffffffffff161461038757600080fd5b600060149054906101000a900460ff16156103a157600080fd5b6001600060146101000a81548160ff0219169083151502179055507f6985a02210a168e66602d3235cb6db0e70f92b3ba4d376a33c0f3d9434bff62560405160405180910390a156fea26469706673582212201afd0bd45c4f213fe787894fe0b9db746b9b0536158dd7bf72dd12d1f723d04c64736f6c63430007040033",
  "immutableReferences": {},
  "source": "/*\n * A minimum multisig wallet interface. Compatible with MultiSigWallet by Gnosis.\n */\ninterface MultiSigWallet {\n    function isOwner(address owner) external view returns (bool);\n}\n\n/**\n * @dev MultiOwnable contract.\n */\ncontract MultiOwnableContract {\n    MultiSigWallet public wallet;\n\n    event MultiOwnableWalletSet(\n        address indexed _contract,\n        address indexed _wallet\n    );\n\n    constructor(address _wallet) {\n        wallet = MultiSigWallet(_wallet);\n        emit MultiOwnableWalletSet(address(this), _wallet);\n    }\n\n    /** Check if a caller is the MultiSig wallet. */\n    modifier onlyWallet() {\n        require(address(wallet) == msg.sender);\n        _;\n    }\n\n    /** Check if a caller is one of the current owners of the MultiSig wallet or the wallet itself. */\n    modifier onlyOwner() {\n        require(isOwner(msg.sender));\n        _;\n    }\n\n    function isOwner(address _address) public view returns (bool) {\n        // NB due to lazy eval wallet could be a normal address and isOwner won't be called if the first condition is met\n        return address(wallet) == _address || wallet.isOwner(_address);\n    }\n\n    /* PAUSABLE with upause callable only by wallet */\n\n    bool public paused = false;\n\n    event Pause();\n    event Unpause();\n\n    /**\n     * @dev Modifier to make a function callable only when the contract is not paused.\n     */\n    modifier whenNotPaused() {\n        require(!paused);\n        _;\n    }\n\n    /**\n     * @dev Modifier to make a function callable only when the contract is paused.\n     */\n    modifier whenPaused() {\n        require(paused);\n        _;\n    }\n\n    /**\n     * @dev called by any MSW owner to pause, triggers stopped state\n     */\n    function pause() public onlyWallet whenNotPaused {\n        paused = true;\n        emit Pause();\n    }\n\n    /**\n     * @dev called by the MSW (all owners) to unpause, returns to normal state\n     */\n    function unpause() public onlyWallet whenPaused {\n        paused = false;\n        emit Unpause();\n    }\n}\n",
  "sourcePath": "/Users/codrin/Projects/erc20-bep20-bridge/contracts/MultiOwnableContract.sol",
  "compiler": {
    "name": "solc",
    "version": "0.7.4+commit.3f05b770.Emscripten.clang"
  },
  "schemaVersion": "3.3.3",
  "updatedAt": "2021-02-10T11:43:12.134Z",
  "devdoc": {
    "details": "MultiOwnable contract.",
    "kind": "dev",
    "methods": {
      "pause()": {
        "details": "called by any MSW owner to pause, triggers stopped state"
      },
      "unpause()": {
        "details": "called by the MSW (all owners) to unpause, returns to normal state"
      }
    },
    "version": 1
  },
  "userdoc": {
    "kind": "user",
    "methods": {},
    "version": 1
  }
}